{
  "hash": "81d295c90717213926b5dc84cca40bd19a5668673a0fb4441ffbe9d1170d37dd",
  "confirmations": 1,
  "strippedsize": 6842,
  "size": 9449,
  "weight": 29975,
  "height": 1940374,
  "version": 536870912,
  "versionHex": "20000000",
  "merkleroot": "f84b8575a9b5d3221980b59b162128110cab70c0d6a905d606c067b7b48d602b",
  "tx": [
    {
      "txid": "c5ff4f777dc5a8306c12cc20bb555a4279d9e49572f42eeabec40663fab3a876",
      "version": 1,
      "type": 0,
      "size": 273,
      "locktime": 0,
      "address": "XmAQzotAmP25xnhrjN6hsnKqWw89Pdsn3T",
      "vin": [
        {
          "txid": "8f3254b44fea26b85a9e563c944f164f7e855527711eaa2eede26d7df0e4df07",
          "vout": 0,
          "scriptSig": {
            "asm": "3045022100f53187ded6608b81a43a9b65a689aff6dd356a1b80a20afc2b16fa4e3daf179502207d94a13d9e4d7c458b12201cd89f73ba9841c13140a7bed864853794e7c70c6b[ALL]",
            "hex": "483045022100f53187ded6608b81a43a9b65a689aff6dd356a1b80a20afc2b16fa4e3daf179502207d94a13d9e4d7c458b12201cd89f73ba9841c13140a7bed864853794e7c70c6b01"
          },
          "sequence": 4294967295
        },
        {
          "txid": "b09a604ba78a8cf9aa244861ef6229d1732673f260b2e6a3594e9f18675e7174",
          "vout": 0,
          "scriptSig": {
            "asm": "30460221008971ab53047b58b99c626e90074d03cec2b699012f0d2c68a218bae6b58b9636022100f2f5729343cdab940399cc1627b28b08442a6e6a1c899203960faff1ec99cb89[ALL]",
            "hex": "4930460221008971ab53047b58b99c626e90074d03cec2b699012f0d2c68a218bae6b58b9636022100f2f5729343cdab940399cc1627b28b08442a6e6a1c899203960faff1ec99cb8901"
          },
          "sequence": 4294967295
        }
      ],
      "vout": [
        {
          "value": 1000,
          "valueSat": 100000000000,
          "n": 0,
          "scriptPubKey": {
            "asm": "OP_DUP OP_HASH160 8ed8fffb55da1fed6267afa87b500458c99e32c8 OP_EQUALVERIFY OP_CHECKSIG",
            "hex": "76a9148ed8fffb55da1fed6267afa87b500458c99e32c888ac",
            "reqSigs": 1,
            "type": "pubkeyhash"
          }
        }
      ],
      "hex": "010000000207dfe4f07d6de2ed2eaa1e712755857e4f164f943c569e5ab826ea4fb454328f0000000049483045022100f53187ded6608b81a43a9b65a689aff6dd356a1b80a20afc2b16fa4e3daf179502207d94a13d9e4d7c458b12201cd89f73ba9841c13140a7bed864853794e7c70c6b01ffffffff74715e67189f4e59a3e6b260f2732673d12962ef614824aaf98c8aa74b609ab0000000004a4930460221008971ab53047b58b99c626e90074d03cec2b699012f0d2c68a218bae6b58b9636022100f2f5729343cdab940399cc1627b28b08442a6e6a1c899203960faff1ec99cb8901ffffffff0100e87648170000001976a9148ed8fffb55da1fed6267afa87b500458c99e32c888ac00000000",
      "instantlock": true,
      "instantlock_internal": false,
      "chainname": "dash"
    }
  ],
  "time": 1604397386,
  "mediantime": 1604396780,
  "nonce": 1484052786,
  "bits": "1a02b440",
  "difficulty": 6204264.008667389,
  "chainwork": "0000000000000000000000000000000000000000000004bd65bfdcfb632cadea",
  "nTx": 23
}
