[
  {
    "txid": "123456",
    "hash": "691f5142d4a7057b18a16a8d3d8efaad87c64c76511b70353276284bc3c8c96f",
    "version": 1,
    "size": 219,
    "vsize": 138,
    "weight": 549,
    "locktime": 0,
    "vin": [
      {
        "txid": "b5c105e73faa1268691c95d7e836ccfe3bfbbe0c94f1da69fc1bc01046ad3c5c",
        "vout": 1,
        "scriptSig": {
          "asm": "",
          "hex": ""
        },
        "txinwitness": [
          "304402200715a2f46f26dabda30a4acd031d617da71034c1f15b7a0588aa03911a5ed4cd022047c9a4f77b66db4bddd96bcf8268eda12515c36225acdcd284033235e2d3adce01",
          "02e03c186c2eec03fea4dcef53f1f0e4916a5991fa0fc8440819d9f112f3766ed4"
        ],
        "sequence": 4294967295
      }
    ],
    "vout": [
      {
        "value": 0.0,
        "n": 0,
        "scriptPubKey": {
          "asm": "OP_RETURN 0b01000c40010000c0000000 3 7525445",
          "hex": "6a0c0b01000c40010000c0000000530345d472",
          "type": "nulldata"
        }
      },
      {
        "value": 0.00193701,
        "n": 1,
        "scriptPubKey": {
          "asm": "0 65eeb8e4920112bb46299ecc1aafd1b54b302e7d",
          "hex": "001465eeb8e4920112bb46299ecc1aafd1b54b302e7d",
          "reqSigs": 1,
          "type": "witness_v0_keyhash",
          "addresses": ["ltc1qvhht3eyjqyftk33fnmxp4t73k49nqtnan292lx"]
        }
      }
    ],
    "hex": "010000000001015c3cad4610c01bfc69daf1940cbefb3bfecc36e8d7951c696812aa3fe705c1b50100000000ffffffff020000000000000000136a0c0b01000c40010000c0000000530345d472a5f402000000000016001465eeb8e4920112bb46299ecc1aafd1b54b302e7d0247304402200715a2f46f26dabda30a4acd031d617da71034c1f15b7a0588aa03911a5ed4cd022047c9a4f77b66db4bddd96bcf8268eda12515c36225acdcd284033235e2d3adce012102e03c186c2eec03fea4dcef53f1f0e4916a5991fa0fc8440819d9f112f3766ed400000000",
    "blockhash": "b18d3d4dfee1c89b13a22ecbfcb8e957bb5ed32b3707017f3273cea7f0f6dda9",
    "confirmations": 1,
    "time": 1604263531,
    "blocktime": 1604263531
  },
  {
    "txid": "654321",
    "hash": "691f5142d4a7057b18a16a8d3d8efaad87c64c76511b70353276284bc3c8c96f",
    "version": 1,
    "size": 219,
    "vsize": 138,
    "weight": 549,
    "locktime": 0,
    "vin": [
      {
        "txid": "b5c105e73faa1268691c95d7e836ccfe3bfbbe0c94f1da69fc1bc01046ad3c5c",
        "vout": 1,
        "scriptSig": {
          "asm": "",
          "hex": ""
        },
        "txinwitness": [
          "304402200715a2f46f26dabda30a4acd031d617da71034c1f15b7a0588aa03911a5ed4cd022047c9a4f77b66db4bddd96bcf8268eda12515c36225acdcd284033235e2d3adce01",
          "02e03c186c2eec03fea4dcef53f1f0e4916a5991fa0fc8440819d9f112f3766ed4"
        ],
        "sequence": 4294967295
      }
    ],
    "vout": [
      {
        "value": 0.0,
        "n": 0,
        "scriptPubKey": {
          "asm": "OP_RETURN 0b01000c40010000c0000000 3 7525445",
          "hex": "6a0c0b01000c40010000c0000000530345d472",
          "type": "nulldata"
        }
      },
      {
        "value": 0.00193701,
        "n": 1,
        "scriptPubKey": {
          "asm": "0 65eeb8e4920112bb46299ecc1aafd1b54b302e7d",
          "hex": "001465eeb8e4920112bb46299ecc1aafd1b54b302e7d",
          "reqSigs": 1,
          "type": "witness_v0_keyhash",
          "addresses": ["ltc1qvhht3eyjqyftk33fnmxp4t73k49nqtnan292lx"]
        }
      }
    ],
    "hex": "010000000001015c3cad4610c01bfc69daf1940cbefb3bfecc36e8d7951c696812aa3fe705c1b50100000000ffffffff020000000000000000136a0c0b01000c40010000c0000000530345d472a5f402000000000016001465eeb8e4920112bb46299ecc1aafd1b54b302e7d0247304402200715a2f46f26dabda30a4acd031d617da71034c1f15b7a0588aa03911a5ed4cd022047c9a4f77b66db4bddd96bcf8268eda12515c36225acdcd284033235e2d3adce012102e03c186c2eec03fea4dcef53f1f0e4916a5991fa0fc8440819d9f112f3766ed400000000",
    "blockhash": "b18d3d4dfee1c89b13a22ecbfcb8e957bb5ed32b3707017f3273cea7f0f6dda9",
    "confirmations": 1,
    "time": 1604263531,
    "blocktime": 1604263531
  },
  {
    "txid": "8f3254b44fea26b85a9e563c944f164f7e855527711eaa2eede26d7df0e4df07",
    "version": 1,
    "type": 0,
    "size": 107,
    "locktime": 0,
    "vin": [
      {
        "coinbase": "0267040103062f503253482f",
        "sequence": 4294967295
      }
    ],
    "vout": [
      {
        "value": 500.0,
        "valueSat": 50000000000,
        "n": 0,
        "scriptPubKey": {
          "asm": "027be57f1ed18812838edd885fa08e6053c8b3382dc913aff0bf699170710caf77 OP_CHECKSIG",
          "hex": "21027be57f1ed18812838edd885fa08e6053c8b3382dc913aff0bf699170710caf77ac",
          "reqSigs": 1,
          "type": "pubkey",
          "addresses": ["XmAQzotAmP25xnhrjN6hsnKqWw89Pdsn3T"]
        }
      }
    ],
    "hex": "01000000010000000000000000000000000000000000000000000000000000000000000000ffffffff0c0267040103062f503253482fffffffff0100743ba40b0000002321027be57f1ed18812838edd885fa08e6053c8b3382dc913aff0bf699170710caf77ac00000000",
    "blockhash": "000000fad2146e3a23ae46bdd4657bb2b67916ea753db11b234717985f59c87e",
    "height": 1127,
    "confirmations": 1368896,
    "time": 1390106363,
    "blocktime": 1390106363,
    "instantlock": true,
    "instantlock_internal": false,
    "chainlock": true,
    "chainId": 2
  },
  {
    "txid": "c5ff4f777dc5a8306c12cc20bb555a4279d9e49572f42eeabec40663fab3a876",
    "version": 1,
    "type": 0,
    "size": 273,
    "locktime": 0,
    "address": "XmAQzotAmP25xnhrjN6hsnKqWw89Pdsn3T",
    "vin": [
      {
        "txid": "8f3254b44fea26b85a9e563c944f164f7e855527711eaa2eede26d7df0e4df07",
        "vout": 0,
        "scriptSig": {
          "asm": "3045022100f53187ded6608b81a43a9b65a689aff6dd356a1b80a20afc2b16fa4e3daf179502207d94a13d9e4d7c458b12201cd89f73ba9841c13140a7bed864853794e7c70c6b[ALL]",
          "hex": "483045022100f53187ded6608b81a43a9b65a689aff6dd356a1b80a20afc2b16fa4e3daf179502207d94a13d9e4d7c458b12201cd89f73ba9841c13140a7bed864853794e7c70c6b01"
        },
        "sequence": 4294967295
      },
      {
        "txid": "b09a604ba78a8cf9aa244861ef6229d1732673f260b2e6a3594e9f18675e7174",
        "vout": 0,
        "scriptSig": {
          "asm": "30460221008971ab53047b58b99c626e90074d03cec2b699012f0d2c68a218bae6b58b9636022100f2f5729343cdab940399cc1627b28b08442a6e6a1c899203960faff1ec99cb89[ALL]",
          "hex": "4930460221008971ab53047b58b99c626e90074d03cec2b699012f0d2c68a218bae6b58b9636022100f2f5729343cdab940399cc1627b28b08442a6e6a1c899203960faff1ec99cb8901"
        },
        "sequence": 4294967295
      }
    ],
    "vout": [
      {
        "value": 1000,
        "valueSat": 100000000000,
        "n": 0,
        "scriptPubKey": {
          "asm": "OP_DUP OP_HASH160 8ed8fffb55da1fed6267afa87b500458c99e32c8 OP_EQUALVERIFY OP_CHECKSIG",
          "hex": "76a9148ed8fffb55da1fed6267afa87b500458c99e32c888ac",
          "reqSigs": 1,
          "type": "pubkeyhash"
        }
      }
    ],
    "hex": "010000000207dfe4f07d6de2ed2eaa1e712755857e4f164f943c569e5ab826ea4fb454328f0000000049483045022100f53187ded6608b81a43a9b65a689aff6dd356a1b80a20afc2b16fa4e3daf179502207d94a13d9e4d7c458b12201cd89f73ba9841c13140a7bed864853794e7c70c6b01ffffffff74715e67189f4e59a3e6b260f2732673d12962ef614824aaf98c8aa74b609ab0000000004a4930460221008971ab53047b58b99c626e90074d03cec2b699012f0d2c68a218bae6b58b9636022100f2f5729343cdab940399cc1627b28b08442a6e6a1c899203960faff1ec99cb8901ffffffff0100e87648170000001976a9148ed8fffb55da1fed6267afa87b500458c99e32c888ac00000000",
    "instantlock": true,
    "instantlock_internal": false,
    "chainId": 2
  }
]
