[
  {
    "txid": "123456",
    "hash": "691f5142d4a7057b18a16a8d3d8efaad87c64c76511b70353276284bc3c8c96f",
    "version": 1,
    "size": 219,
    "vsize": 138,
    "weight": 549,
    "locktime": 0,
    "vin": [
      {
        "txid": "b5c105e73faa1268691c95d7e836ccfe3bfbbe0c94f1da69fc1bc01046ad3c5c",
        "vout": 1,
        "scriptSig": {
          "asm": "",
          "hex": ""
        },
        "txinwitness": [
          "304402200715a2f46f26dabda30a4acd031d617da71034c1f15b7a0588aa03911a5ed4cd022047c9a4f77b66db4bddd96bcf8268eda12515c36225acdcd284033235e2d3adce01",
          "02e03c186c2eec03fea4dcef53f1f0e4916a5991fa0fc8440819d9f112f3766ed4"
        ],
        "sequence": 4294967295
      }
    ],
    "vout": [
      {
        "value": 0.0,
        "n": 0,
        "scriptPubKey": {
          "asm": "OP_RETURN 0b01000c40010000c0000000 3 7525445",
          "hex": "6a0c0b01000c40010000c0000000530345d472",
          "type": "nulldata"
        }
      },
      {
        "value": 0.00193701,
        "n": 1,
        "scriptPubKey": {
          "asm": "0 65eeb8e4920112bb46299ecc1aafd1b54b302e7d",
          "hex": "001465eeb8e4920112bb46299ecc1aafd1b54b302e7d",
          "reqSigs": 1,
          "type": "witness_v0_keyhash",
          "addresses": ["ltc1qvhht3eyjqyftk33fnmxp4t73k49nqtnan292lx"]
        }
      }
    ],
    "hex": "010000000001015c3cad4610c01bfc69daf1940cbefb3bfecc36e8d7951c696812aa3fe705c1b50100000000ffffffff020000000000000000136a0c0b01000c40010000c0000000530345d472a5f402000000000016001465eeb8e4920112bb46299ecc1aafd1b54b302e7d0247304402200715a2f46f26dabda30a4acd031d617da71034c1f15b7a0588aa03911a5ed4cd022047c9a4f77b66db4bddd96bcf8268eda12515c36225acdcd284033235e2d3adce012102e03c186c2eec03fea4dcef53f1f0e4916a5991fa0fc8440819d9f112f3766ed400000000",
    "blockhash": "b18d3d4dfee1c89b13a22ecbfcb8e957bb5ed32b3707017f3273cea7f0f6dda9",
    "confirmations": 1,
    "time": 1604263531,
    "blocktime": 1604263531
  },
  {
    "txid": "654321",
    "hash": "691f5142d4a7057b18a16a8d3d8efaad87c64c76511b70353276284bc3c8c96f",
    "version": 1,
    "size": 219,
    "vsize": 138,
    "weight": 549,
    "locktime": 0,
    "vin": [
      {
        "txid": "b5c105e73faa1268691c95d7e836ccfe3bfbbe0c94f1da69fc1bc01046ad3c5c",
        "vout": 1,
        "scriptSig": {
          "asm": "",
          "hex": ""
        },
        "txinwitness": [
          "304402200715a2f46f26dabda30a4acd031d617da71034c1f15b7a0588aa03911a5ed4cd022047c9a4f77b66db4bddd96bcf8268eda12515c36225acdcd284033235e2d3adce01",
          "02e03c186c2eec03fea4dcef53f1f0e4916a5991fa0fc8440819d9f112f3766ed4"
        ],
        "sequence": 4294967295
      }
    ],
    "vout": [
      {
        "value": 0.0,
        "n": 0,
        "scriptPubKey": {
          "asm": "OP_RETURN 0b01000c40010000c0000000 3 7525445",
          "hex": "6a0c0b01000c40010000c0000000530345d472",
          "type": "nulldata"
        }
      },
      {
        "value": 0.00193701,
        "n": 1,
        "scriptPubKey": {
          "asm": "0 65eeb8e4920112bb46299ecc1aafd1b54b302e7d",
          "hex": "001465eeb8e4920112bb46299ecc1aafd1b54b302e7d",
          "reqSigs": 1,
          "type": "witness_v0_keyhash",
          "addresses": ["ltc1qvhht3eyjqyftk33fnmxp4t73k49nqtnan292lx"]
        }
      }
    ],
    "hex": "010000000001015c3cad4610c01bfc69daf1940cbefb3bfecc36e8d7951c696812aa3fe705c1b50100000000ffffffff020000000000000000136a0c0b01000c40010000c0000000530345d472a5f402000000000016001465eeb8e4920112bb46299ecc1aafd1b54b302e7d0247304402200715a2f46f26dabda30a4acd031d617da71034c1f15b7a0588aa03911a5ed4cd022047c9a4f77b66db4bddd96bcf8268eda12515c36225acdcd284033235e2d3adce012102e03c186c2eec03fea4dcef53f1f0e4916a5991fa0fc8440819d9f112f3766ed400000000",
    "blockhash": "b18d3d4dfee1c89b13a22ecbfcb8e957bb5ed32b3707017f3273cea7f0f6dda9",
    "confirmations": 1,
    "time": 1604263531,
    "blocktime": 1604263531
  }
]
